{
  "abi": [
    {
      "inputs": [],
      "stateMutability": "nonpayable",
      "type": "constructor"
    },
    {
      "inputs": [],
      "name": "BlockHashNotValidatedInCache",
      "type": "error"
    },
    {
      "inputs": [],
      "name": "BlockHashWitnessNotRecent",
      "type": "error"
    },
    {
      "inputs": [],
      "name": "BlockMerkleRootDoesNotMatchProof",
      "type": "error"
    },
    {
      "inputs": [],
      "name": "CannotFulfillIfNotActive",
      "type": "error"
    },
    {
      "inputs": [],
      "name": "CannotRefundBeforeDeadline",
      "type": "error"
    },
    {
      "inputs": [],
      "name": "CannotRefundIfNotActive",
      "type": "error"
    },
    {
      "inputs": [],
      "name": "ClaimedMMRDoesNotMatchRecent",
      "type": "error"
    },
    {
      "inputs": [],
      "name": "ContractIsFrozen",
      "type": "error"
    },
    {
      "inputs": [],
      "name": "HistoricalMMRKeccakDoesNotMatchProof",
      "type": "error"
    },
    {
      "inputs": [],
      "name": "KeccakQueryResponseDoesNotMatchProof",
      "type": "error"
    },
    {
      "inputs": [],
      "name": "MMREndBlockNotRecent",
      "type": "error"
    },
    {
      "inputs": [],
      "name": "MMRProofVerificationFailed",
      "type": "error"
    },
    {
      "inputs": [],
      "name": "NotProverRole",
      "type": "error"
    },
    {
      "inputs": [],
      "name": "PriceNotPaid",
      "type": "error"
    },
    {
      "inputs": [],
      "name": "PriceTooHigh",
      "type": "error"
    },
    {
      "inputs": [],
      "name": "ProofVerificationFailed",
      "type": "error"
    },
    {
      "inputs": [],
      "name": "QueryNotInactive",
      "type": "error"
    },
    {
      "anonymous": false,
      "inputs": [
        {
          "indexed": false,
          "internalType": "address",
          "name": "previousAdmin",
          "type": "address"
        },
        {
          "indexed": false,
          "internalType": "address",
          "name": "newAdmin",
          "type": "address"
        }
      ],
      "name": "AdminChanged",
      "type": "event"
    },
    {
      "anonymous": false,
      "inputs": [
        {
          "indexed": true,
          "internalType": "address",
          "name": "beacon",
          "type": "address"
        }
      ],
      "name": "BeaconUpgraded",
      "type": "event"
    },
    {
      "anonymous": false,
      "inputs": [],
      "name": "FreezeAll",
      "type": "event"
    },
    {
      "anonymous": false,
      "inputs": [
        {
          "indexed": false,
          "internalType": "uint8",
          "name": "version",
          "type": "uint8"
        }
      ],
      "name": "Initialized",
      "type": "event"
    },
    {
      "anonymous": false,
      "inputs": [
        {
          "indexed": false,
          "internalType": "enum IAxiomExperimentalTx.AxiomQueryType",
          "name": "queryType",
          "type": "uint8"
        },
        {
          "indexed": false,
          "internalType": "bytes32",
          "name": "keccakResponse",
          "type": "bytes32"
        }
      ],
      "name": "KeccakResultEvent",
      "type": "event"
    },
    {
      "anonymous": false,
      "inputs": [
        {
          "indexed": false,
          "internalType": "enum IAxiomExperimentalTx.AxiomQueryType",
          "name": "queryType",
          "type": "uint8"
        },
        {
          "indexed": false,
          "internalType": "bytes32",
          "name": "poseidonResponse",
          "type": "bytes32"
        }
      ],
      "name": "PoseidonResultEvent",
      "type": "event"
    },
    {
      "anonymous": false,
      "inputs": [
        {
          "indexed": false,
          "internalType": "enum IAxiomExperimentalTx.AxiomQueryType",
          "name": "queryType",
          "type": "uint8"
        },
        {
          "indexed": false,
          "internalType": "bytes32",
          "name": "keccakQueryResponse",
          "type": "bytes32"
        },
        {
          "indexed": false,
          "internalType": "uint256",
          "name": "payment",
          "type": "uint256"
        },
        {
          "indexed": false,
          "internalType": "address",
          "name": "prover",
          "type": "address"
        }
      ],
      "name": "QueryFulfilled",
      "type": "event"
    },
    {
      "anonymous": false,
      "inputs": [
        {
          "indexed": false,
          "internalType": "bytes32",
          "name": "keccakQueryResponse",
          "type": "bytes32"
        },
        {
          "indexed": false,
          "internalType": "uint256",
          "name": "payment",
          "type": "uint256"
        },
        {
          "indexed": false,
          "internalType": "uint32",
          "name": "deadlineBlockNumber",
          "type": "uint32"
        },
        {
          "indexed": false,
          "internalType": "address",
          "name": "refundee",
          "type": "address"
        },
        {
          "indexed": false,
          "internalType": "bytes32",
          "name": "ipfsHash",
          "type": "bytes32"
        }
      ],
      "name": "QueryInitiatedOffchain",
      "type": "event"
    },
    {
      "anonymous": false,
      "inputs": [
        {
          "indexed": false,
          "internalType": "enum IAxiomExperimentalTx.AxiomQueryType",
          "name": "queryType",
          "type": "uint8"
        },
        {
          "indexed": false,
          "internalType": "bytes32",
          "name": "keccakQueryResponse",
          "type": "bytes32"
        },
        {
          "indexed": false,
          "internalType": "uint256",
          "name": "payment",
          "type": "uint256"
        },
        {
          "indexed": false,
          "internalType": "uint32",
          "name": "deadlineBlockNumber",
          "type": "uint32"
        },
        {
          "indexed": false,
          "internalType": "address",
          "name": "refundee",
          "type": "address"
        }
      ],
      "name": "QueryRefunded",
      "type": "event"
    },
    {
      "anonymous": false,
      "inputs": [
        {
          "indexed": false,
          "internalType": "bytes32",
          "name": "keccakResponse",
          "type": "bytes32"
        },
        {
          "indexed": false,
          "internalType": "uint256",
          "name": "payment",
          "type": "uint256"
        },
        {
          "indexed": false,
          "internalType": "uint32",
          "name": "deadlineBlockNumber",
          "type": "uint32"
        },
        {
          "indexed": false,
          "internalType": "address",
          "name": "refundee",
          "type": "address"
        },
        {
          "indexed": false,
          "internalType": "bytes32",
          "name": "queryHash",
          "type": "bytes32"
        }
      ],
      "name": "ReceiptQueryInitiatedOnchain",
      "type": "event"
    },
    {
      "anonymous": false,
      "inputs": [
        {
          "indexed": true,
          "internalType": "bytes32",
          "name": "role",
          "type": "bytes32"
        },
        {
          "indexed": true,
          "internalType": "bytes32",
          "name": "previousAdminRole",
          "type": "bytes32"
        },
        {
          "indexed": true,
          "internalType": "bytes32",
          "name": "newAdminRole",
          "type": "bytes32"
        }
      ],
      "name": "RoleAdminChanged",
      "type": "event"
    },
    {
      "anonymous": false,
      "inputs": [
        {
          "indexed": true,
          "internalType": "bytes32",
          "name": "role",
          "type": "bytes32"
        },
        {
          "indexed": true,
          "internalType": "address",
          "name": "account",
          "type": "address"
        },
        {
          "indexed": true,
          "internalType": "address",
          "name": "sender",
          "type": "address"
        }
      ],
      "name": "RoleGranted",
      "type": "event"
    },
    {
      "anonymous": false,
      "inputs": [
        {
          "indexed": true,
          "internalType": "bytes32",
          "name": "role",
          "type": "bytes32"
        },
        {
          "indexed": true,
          "internalType": "address",
          "name": "account",
          "type": "address"
        },
        {
          "indexed": true,
          "internalType": "address",
          "name": "sender",
          "type": "address"
        }
      ],
      "name": "RoleRevoked",
      "type": "event"
    },
    {
      "anonymous": false,
      "inputs": [
        {
          "indexed": false,
          "internalType": "bytes32",
          "name": "keccakResponse",
          "type": "bytes32"
        },
        {
          "indexed": false,
          "internalType": "uint256",
          "name": "payment",
          "type": "uint256"
        },
        {
          "indexed": false,
          "internalType": "uint32",
          "name": "deadlineBlockNumber",
          "type": "uint32"
        },
        {
          "indexed": false,
          "internalType": "address",
          "name": "refundee",
          "type": "address"
        },
        {
          "indexed": false,
          "internalType": "bytes32",
          "name": "queryHash",
          "type": "bytes32"
        }
      ],
      "name": "TxQueryInitiatedOnchain",
      "type": "event"
    },
    {
      "anonymous": false,
      "inputs": [],
      "name": "UnfreezeAll",
      "type": "event"
    },
    {
      "anonymous": false,
      "inputs": [
        {
          "indexed": false,
          "internalType": "address",
          "name": "newAddress",
          "type": "address"
        }
      ],
      "name": "UpdateAxiomAddress",
      "type": "event"
    },
    {
      "anonymous": false,
      "inputs": [
        {
          "indexed": false,
          "internalType": "address",
          "name": "newAddress",
          "type": "address"
        }
      ],
      "name": "UpdateMMRVerifierAddress",
      "type": "event"
    },
    {
      "anonymous": false,
      "inputs": [
        {
          "indexed": false,
          "internalType": "uint256",
          "name": "maxQueryPrice",
          "type": "uint256"
        }
      ],
      "name": "UpdateMaxQueryPrice",
      "type": "event"
    },
    {
      "anonymous": false,
      "inputs": [
        {
          "indexed": false,
          "internalType": "uint256",
          "name": "minQueryPrice",
          "type": "uint256"
        }
      ],
      "name": "UpdateMinQueryPrice",
      "type": "event"
    },
    {
      "anonymous": false,
      "inputs": [
        {
          "indexed": false,
          "internalType": "uint32",
          "name": "queryDeadlineInterval",
          "type": "uint32"
        }
      ],
      "name": "UpdateQueryDeadlineInterval",
      "type": "event"
    },
    {
      "anonymous": false,
      "inputs": [
        {
          "indexed": true,
          "internalType": "address",
          "name": "implementation",
          "type": "address"
        }
      ],
      "name": "Upgraded",
      "type": "event"
    },
    {
      "inputs": [],
      "name": "DEFAULT_ADMIN_ROLE",
      "outputs": [
        {
          "internalType": "bytes32",
          "name": "",
          "type": "bytes32"
        }
      ],
      "stateMutability": "view",
      "type": "function"
    },
    {
      "inputs": [],
      "name": "GUARDIAN_ROLE",
      "outputs": [
        {
          "internalType": "bytes32",
          "name": "",
          "type": "bytes32"
        }
      ],
      "stateMutability": "view",
      "type": "function"
    },
    {
      "inputs": [],
      "name": "PROVER_ROLE",
      "outputs": [
        {
          "internalType": "bytes32",
          "name": "",
          "type": "bytes32"
        }
      ],
      "stateMutability": "view",
      "type": "function"
    },
    {
      "inputs": [],
      "name": "TIMELOCK_ROLE",
      "outputs": [
        {
          "internalType": "bytes32",
          "name": "",
          "type": "bytes32"
        }
      ],
      "stateMutability": "view",
      "type": "function"
    },
    {
      "inputs": [
        {
          "internalType": "bytes32",
          "name": "keccakReceiptResponse",
          "type": "bytes32"
        },
        {
          "components": [
            {
              "internalType": "uint32",
              "name": "blockNumber",
              "type": "uint32"
            },
            {
              "internalType": "uint32",
              "name": "txIdx",
              "type": "uint32"
            },
            {
              "internalType": "uint8",
              "name": "fieldIdx",
              "type": "uint8"
            },
            {
              "internalType": "uint8",
              "name": "logIdx",
              "type": "uint8"
            },
            {
              "internalType": "bytes",
              "name": "value",
              "type": "bytes"
            },
            {
              "internalType": "uint32",
              "name": "leafIdx",
              "type": "uint32"
            },
            {
              "internalType": "bytes32[]",
              "name": "proof",
              "type": "bytes32[]"
            }
          ],
          "internalType": "struct IAxiomExperimentalTx.ReceiptResponse[]",
          "name": "receiptResponses",
          "type": "tuple[]"
        }
      ],
      "name": "areOnlyReceiptsValid",
      "outputs": [
        {
          "internalType": "bool",
          "name": "",
          "type": "bool"
        }
      ],
      "stateMutability": "view",
      "type": "function"
    },
    {
      "inputs": [
        {
          "internalType": "bytes32",
          "name": "keccakTxResponse",
          "type": "bytes32"
        },
        {
          "internalType": "bytes32",
          "name": "keccakReceiptResponse",
          "type": "bytes32"
        },
        {
          "components": [
            {
              "internalType": "uint32",
              "name": "blockNumber",
              "type": "uint32"
            },
            {
              "internalType": "uint32",
              "name": "txIdx",
              "type": "uint32"
            },
            {
              "internalType": "uint8",
              "name": "txType",
              "type": "uint8"
            },
            {
              "internalType": "uint8",
              "name": "fieldIdx",
              "type": "uint8"
            },
            {
              "internalType": "bytes",
              "name": "value",
              "type": "bytes"
            },
            {
              "internalType": "uint32",
              "name": "leafIdx",
              "type": "uint32"
            },
            {
              "internalType": "bytes32[]",
              "name": "proof",
              "type": "bytes32[]"
            }
          ],
          "internalType": "struct IAxiomExperimentalTx.TxResponse[]",
          "name": "txResponses",
          "type": "tuple[]"
        },
        {
          "components": [
            {
              "internalType": "uint32",
              "name": "blockNumber",
              "type": "uint32"
            },
            {
              "internalType": "uint32",
              "name": "txIdx",
              "type": "uint32"
            },
            {
              "internalType": "uint8",
              "name": "fieldIdx",
              "type": "uint8"
            },
            {
              "internalType": "uint8",
              "name": "logIdx",
              "type": "uint8"
            },
            {
              "internalType": "bytes",
              "name": "value",
              "type": "bytes"
            },
            {
              "internalType": "uint32",
              "name": "leafIdx",
              "type": "uint32"
            },
            {
              "internalType": "bytes32[]",
              "name": "proof",
              "type": "bytes32[]"
            }
          ],
          "internalType": "struct IAxiomExperimentalTx.ReceiptResponse[]",
          "name": "receiptResponses",
          "type": "tuple[]"
        }
      ],
      "name": "areTxReceiptsValid",
      "outputs": [
        {
          "internalType": "bool",
          "name": "",
          "type": "bool"
        }
      ],
      "stateMutability": "view",
      "type": "function"
    },
    {
      "inputs": [],
      "name": "axiomAddress",
      "outputs": [
        {
          "internalType": "address",
          "name": "",
          "type": "address"
        }
      ],
      "stateMutability": "view",
      "type": "function"
    },
    {
      "inputs": [
        {
          "internalType": "bytes32",
          "name": "keccakQueryResponse",
          "type": "bytes32"
        },
        {
          "internalType": "enum IAxiomExperimentalTx.AxiomQueryType",
          "name": "queryType",
          "type": "uint8"
        }
      ],
      "name": "collectRefund",
      "outputs": [],
      "stateMutability": "nonpayable",
      "type": "function"
    },
    {
      "inputs": [],
      "name": "freezeAll",
      "outputs": [],
      "stateMutability": "nonpayable",
      "type": "function"
    },
    {
      "inputs": [],
      "name": "frozen",
      "outputs": [
        {
          "internalType": "bool",
          "name": "",
          "type": "bool"
        }
      ],
      "stateMutability": "view",
      "type": "function"
    },
    {
      "inputs": [
        {
          "internalType": "bytes32",
          "name": "keccakQueryResponse",
          "type": "bytes32"
        },
        {
          "internalType": "address payable",
          "name": "payee",
          "type": "address"
        },
        {
          "internalType": "uint32",
          "name": "mmrIdx",
          "type": "uint32"
        },
        {
          "components": [
            {
              "internalType": "bytes32",
              "name": "prevHash",
              "type": "bytes32"
            },
            {
              "internalType": "bytes32",
              "name": "root",
              "type": "bytes32"
            },
            {
              "internalType": "uint32",
              "name": "numFinal",
              "type": "uint32"
            },
            {
              "internalType": "uint32",
              "name": "startBlockNumber",
              "type": "uint32"
            },
            {
              "internalType": "bytes32[10]",
              "name": "recentMMRPeaks",
              "type": "bytes32[10]"
            },
            {
              "internalType": "bytes32[10]",
              "name": "mmrComplementOrPeaks",
              "type": "bytes32[10]"
            }
          ],
          "internalType": "struct IAxiomExperimentalTx.RecentMMRWitness",
          "name": "mmrWitness",
          "type": "tuple"
        },
        {
          "internalType": "bytes",
          "name": "proof",
          "type": "bytes"
        },
        {
          "internalType": "enum IAxiomExperimentalTx.AxiomQueryType",
          "name": "queryType",
          "type": "uint8"
        }
      ],
      "name": "fulfillQueryVsMMR",
      "outputs": [],
      "stateMutability": "nonpayable",
      "type": "function"
    },
    {
      "inputs": [
        {
          "internalType": "bytes32",
          "name": "role",
          "type": "bytes32"
        }
      ],
      "name": "getRoleAdmin",
      "outputs": [
        {
          "internalType": "bytes32",
          "name": "",
          "type": "bytes32"
        }
      ],
      "stateMutability": "view",
      "type": "function"
    },
    {
      "inputs": [
        {
          "internalType": "bytes32",
          "name": "role",
          "type": "bytes32"
        },
        {
          "internalType": "address",
          "name": "account",
          "type": "address"
        }
      ],
      "name": "grantRole",
      "outputs": [],
      "stateMutability": "nonpayable",
      "type": "function"
    },
    {
      "inputs": [
        {
          "internalType": "bytes32",
          "name": "role",
          "type": "bytes32"
        },
        {
          "internalType": "address",
          "name": "account",
          "type": "address"
        }
      ],
      "name": "hasRole",
      "outputs": [
        {
          "internalType": "bool",
          "name": "",
          "type": "bool"
        }
      ],
      "stateMutability": "view",
      "type": "function"
    },
    {
      "inputs": [
        {
          "internalType": "address",
          "name": "_axiomAddress",
          "type": "address"
        },
        {
          "internalType": "uint256",
          "name": "_minQueryPrice",
          "type": "uint256"
        },
        {
          "internalType": "uint256",
          "name": "_maxQueryPrice",
          "type": "uint256"
        },
        {
          "internalType": "uint32",
          "name": "_queryDeadlineInterval",
          "type": "uint32"
        },
        {
          "internalType": "address",
          "name": "timelock",
          "type": "address"
        },
        {
          "internalType": "address",
          "name": "guardian",
          "type": "address"
        },
        {
          "internalType": "address",
          "name": "prover",
          "type": "address"
        }
      ],
      "name": "initialize",
      "outputs": [],
      "stateMutability": "nonpayable",
      "type": "function"
    },
    {
      "inputs": [
        {
          "internalType": "enum IAxiomExperimentalTx.AxiomQueryType",
          "name": "queryType",
          "type": "uint8"
        },
        {
          "internalType": "bytes32",
          "name": "keccakResponse",
          "type": "bytes32"
        }
      ],
      "name": "isKeccakResultValid",
      "outputs": [
        {
          "internalType": "bool",
          "name": "",
          "type": "bool"
        }
      ],
      "stateMutability": "view",
      "type": "function"
    },
    {
      "inputs": [],
      "name": "maxQueryPrice",
      "outputs": [
        {
          "internalType": "uint256",
          "name": "",
          "type": "uint256"
        }
      ],
      "stateMutability": "view",
      "type": "function"
    },
    {
      "inputs": [],
      "name": "minQueryPrice",
      "outputs": [
        {
          "internalType": "uint256",
          "name": "",
          "type": "uint256"
        }
      ],
      "stateMutability": "view",
      "type": "function"
    },
    {
      "inputs": [],
      "name": "proxiableUUID",
      "outputs": [
        {
          "internalType": "bytes32",
          "name": "",
          "type": "bytes32"
        }
      ],
      "stateMutability": "view",
      "type": "function"
    },
    {
      "inputs": [
        {
          "internalType": "enum IAxiomExperimentalTx.AxiomQueryType",
          "name": "",
          "type": "uint8"
        },
        {
          "internalType": "bytes32",
          "name": "",
          "type": "bytes32"
        }
      ],
      "name": "queries",
      "outputs": [
        {
          "internalType": "uint256",
          "name": "payment",
          "type": "uint256"
        },
        {
          "internalType": "enum IAxiomExperimentalTx.AxiomQueryState",
          "name": "state",
          "type": "uint8"
        },
        {
          "internalType": "uint32",
          "name": "deadlineBlockNumber",
          "type": "uint32"
        },
        {
          "internalType": "address payable",
          "name": "refundee",
          "type": "address"
        }
      ],
      "stateMutability": "view",
      "type": "function"
    },
    {
      "inputs": [],
      "name": "queryDeadlineInterval",
      "outputs": [
        {
          "internalType": "uint32",
          "name": "",
          "type": "uint32"
        }
      ],
      "stateMutability": "view",
      "type": "function"
    },
    {
      "inputs": [
        {
          "internalType": "bytes32",
          "name": "role",
          "type": "bytes32"
        },
        {
          "internalType": "address",
          "name": "account",
          "type": "address"
        }
      ],
      "name": "renounceRole",
      "outputs": [],
      "stateMutability": "nonpayable",
      "type": "function"
    },
    {
      "inputs": [
        {
          "internalType": "bytes32",
          "name": "role",
          "type": "bytes32"
        },
        {
          "internalType": "address",
          "name": "account",
          "type": "address"
        }
      ],
      "name": "revokeRole",
      "outputs": [],
      "stateMutability": "nonpayable",
      "type": "function"
    },
    {
      "inputs": [
        {
          "internalType": "bytes32",
          "name": "keccakResponse",
          "type": "bytes32"
        },
        {
          "internalType": "address payable",
          "name": "refundee",
          "type": "address"
        },
        {
          "internalType": "bytes",
          "name": "query",
          "type": "bytes"
        }
      ],
      "name": "sendOnlyReceiptsQuery",
      "outputs": [],
      "stateMutability": "payable",
      "type": "function"
    },
    {
      "inputs": [
        {
          "internalType": "bytes32",
          "name": "keccakResponse",
          "type": "bytes32"
        },
        {
          "internalType": "address payable",
          "name": "refundee",
          "type": "address"
        },
        {
          "internalType": "bytes",
          "name": "query",
          "type": "bytes"
        }
      ],
      "name": "sendTxReceiptsQuery",
      "outputs": [],
      "stateMutability": "payable",
      "type": "function"
    },
    {
      "inputs": [
        {
          "internalType": "bytes4",
          "name": "interfaceId",
          "type": "bytes4"
        }
      ],
      "name": "supportsInterface",
      "outputs": [
        {
          "internalType": "bool",
          "name": "",
          "type": "bool"
        }
      ],
      "stateMutability": "view",
      "type": "function"
    },
    {
      "inputs": [],
      "name": "unfreezeAll",
      "outputs": [],
      "stateMutability": "nonpayable",
      "type": "function"
    },
    {
      "inputs": [
        {
          "internalType": "address",
          "name": "_axiomAddress",
          "type": "address"
        }
      ],
      "name": "updateAxiomAddress",
      "outputs": [],
      "stateMutability": "nonpayable",
      "type": "function"
    },
    {
      "inputs": [
        {
          "internalType": "uint256",
          "name": "_maxQueryPrice",
          "type": "uint256"
        }
      ],
      "name": "updateMaxQueryPrice",
      "outputs": [],
      "stateMutability": "nonpayable",
      "type": "function"
    },
    {
      "inputs": [
        {
          "internalType": "uint256",
          "name": "_minQueryPrice",
          "type": "uint256"
        }
      ],
      "name": "updateMinQueryPrice",
      "outputs": [],
      "stateMutability": "nonpayable",
      "type": "function"
    },
    {
      "inputs": [
        {
          "internalType": "uint32",
          "name": "_queryDeadlineInterval",
          "type": "uint32"
        }
      ],
      "name": "updateQueryDeadlineInterval",
      "outputs": [],
      "stateMutability": "nonpayable",
      "type": "function"
    },
    {
      "inputs": [
        {
          "internalType": "address",
          "name": "newImplementation",
          "type": "address"
        }
      ],
      "name": "upgradeTo",
      "outputs": [],
      "stateMutability": "nonpayable",
      "type": "function"
    },
    {
      "inputs": [
        {
          "internalType": "address",
          "name": "newImplementation",
          "type": "address"
        },
        {
          "internalType": "bytes",
          "name": "data",
          "type": "bytes"
        }
      ],
      "name": "upgradeToAndCall",
      "outputs": [],
      "stateMutability": "payable",
      "type": "function"
    },
    {
      "inputs": [
        {
          "internalType": "enum IAxiomExperimentalTx.AxiomQueryType",
          "name": "",
          "type": "uint8"
        },
        {
          "internalType": "bytes32",
          "name": "",
          "type": "bytes32"
        }
      ],
      "name": "verifiedKeccakResults",
      "outputs": [
        {
          "internalType": "bool",
          "name": "",
          "type": "bool"
        }
      ],
      "stateMutability": "view",
      "type": "function"
    },
    {
      "inputs": [
        {
          "internalType": "uint32",
          "name": "mmrIdx",
          "type": "uint32"
        },
        {
          "components": [
            {
              "internalType": "bytes32",
              "name": "prevHash",
              "type": "bytes32"
            },
            {
              "internalType": "bytes32",
              "name": "root",
              "type": "bytes32"
            },
            {
              "internalType": "uint32",
              "name": "numFinal",
              "type": "uint32"
            },
            {
              "internalType": "uint32",
              "name": "startBlockNumber",
              "type": "uint32"
            },
            {
              "internalType": "bytes32[10]",
              "name": "recentMMRPeaks",
              "type": "bytes32[10]"
            },
            {
              "internalType": "bytes32[10]",
              "name": "mmrComplementOrPeaks",
              "type": "bytes32[10]"
            }
          ],
          "internalType": "struct IAxiomExperimentalTx.RecentMMRWitness",
          "name": "mmrWitness",
          "type": "tuple"
        },
        {
          "internalType": "bytes",
          "name": "proof",
          "type": "bytes"
        },
        {
          "internalType": "enum IAxiomExperimentalTx.AxiomQueryType",
          "name": "queryType",
          "type": "uint8"
        }
      ],
      "name": "verifyResultVsMMR",
      "outputs": [],
      "stateMutability": "nonpayable",
      "type": "function"
    }
  ],
  "bytecode": {
    "object": "0x60a0604052306080523480156200001557600080fd5b506200002062000026565b62000164565b600054610100900460ff161562000074576040517f08c379a00000000000000000000000000000000000000000000000000000000081526004016200006b90620000ec565b60405180910390fd5b60005460ff9081161015620000ea57600080547fffffffffffffffffffffffffffffffffffffffffffffffffffffffffffffff001660ff9081179091556040517f7f26b83ff96e1f2b6a682f133852f6798a09c465da95921460cefb384740249891620000e19162000154565b60405180910390a15b565b602080825281016200014e81602781527f496e697469616c697a61626c653a20636f6e747261637420697320696e69746960208201527f616c697a696e6700000000000000000000000000000000000000000000000000604082015260600190565b92915050565b60ff82168152602081016200014e565b6080516159ad6200019c60003960008181610e1401528181610e6e0152818161136f015281816113c9015261192101526159ad6000f3fe6080604052600436106102345760003560e01c8063601b6e0f11610138578063a217fddf116100b0578063d547741f1161007f578063dc9a4ef611610064578063dc9a4ef6146106f5578063df7e2e2d14610729578063f288a2e21461074057600080fd5b8063d547741f146106b5578063d77de079146106d557600080fd5b8063a217fddf14610649578063b1d401cd1461065e578063ce262d7a14610675578063d4ffc3c51461069557600080fd5b8063798da01a1161010757806391d14854116100ec57806391d14854146105ce57806399464c8914610621578063a0b7657c1461063657600080fd5b8063798da01a1461058357806379ce0468146105a357600080fd5b8063601b6e0f146104ae57806366c5c4a0146104ce5780636a1f78df146104e3578063774a62341461056357600080fd5b806336568abe116101cb578063462b0b131161019a57806350c0d2d81161017f57806350c0d2d81461043e578063528bad371461045e57806352d1902d1461049957600080fd5b8063462b0b13146104185780634f1ef2861461042b57600080fd5b806336568abe1461037c5780633659cfe61461039c57806337185d1f146103bc5780634549d820146103f857600080fd5b80632303049e116102075780632303049e146102cb578063248a9ca3146102eb57806324ea54f4146103285780632f2ff15d1461035c57600080fd5b806301f8fca41461023957806301ffc9a71461025b57806303a78f4914610291578063054f7d9c146102b1575b600080fd5b34801561024557600080fd5b5061025961025436600461429e565b610774565b005b34801561026757600080fd5b5061027b6102763660046142fa565b6107e0565b6040516102889190614325565b60405180910390f35b34801561029d57600080fd5b5061027b6102ac366004614385565b61083c565b3480156102bd57600080fd5b5060975461027b9060ff1681565b3480156102d757600080fd5b5061027b6102e636600461443f565b610d1a565b3480156102f757600080fd5b5061031b61030636600461429e565b60009081526065602052604090206001015490565b6040516102889190614482565b34801561033457600080fd5b5061031b7f55435dd261a4b9b3364963f7738a7a662ad9c84396d64be3365284bb7f0a504181565b34801561036857600080fd5b506102596103773660046144c2565b610d6d565b34801561038857600080fd5b506102596103973660046144c2565b610d97565b3480156103a857600080fd5b506102596103b73660046144f5565b610dfd565b3480156103c857600080fd5b5061027b6103d736600461443f565b61012560209081526000928352604080842090915290825290205460ff1681565b34801561040457600080fd5b50610259610413366004614516565b610f56565b610259610426366004614594565b61124f565b610259610439366004614752565b611358565b34801561044a57600080fd5b506102596104593660046147b7565b61149e565b34801561046a57600080fd5b506101245461048c9073ffffffffffffffffffffffffffffffffffffffff1681565b604051610288919061485f565b3480156104a557600080fd5b5061031b611907565b3480156104ba57600080fd5b506102596104c9366004614889565b61199d565b3480156104da57600080fd5b50610259611e9c565b3480156104ef57600080fd5b506105536104fe36600461443f565b6101296020908152600092835260408084209091529082529020805460019091015460ff811690610100810463ffffffff169065010000000000900473ffffffffffffffffffffffffffffffffffffffff1684565b6040516102889493929190614991565b34801561056f57600080fd5b5061025961057e3660046144f5565b611f1a565b34801561058f57600080fd5b5061025961059e36600461429e565b611fb5565b3480156105af57600080fd5b50610128546105c19063ffffffff1681565b60405161028891906149c6565b3480156105da57600080fd5b5061027b6105e93660046144c2565b600091825260656020908152604080842073ffffffffffffffffffffffffffffffffffffffff93909316845291905290205460ff1690565b34801561062d57600080fd5b50610259612015565b610259610644366004614594565b612096565b34801561065557600080fd5b5061031b600081565b34801561066a57600080fd5b5061031b6101265481565b34801561068157600080fd5b5061027b6106903660046149d4565b61217d565b3480156106a157600080fd5b506102596106b0366004614a30565b6123d2565b3480156106c157600080fd5b506102596106d03660046144c2565b6124a7565b3480156106e157600080fd5b506102596106f0366004614ab7565b6124cc565b34801561070157600080fd5b5061031b7f60044782a422109ac08a415e44260ad5d3bad63d96ebe1fac0363399642ee3f281565b34801561073557600080fd5b5061031b6101275481565b34801561074c57600080fd5b5061031b7ff66846415d2bf9eabda9e84793ff9c0ea96d87f50fc41e66aa16469c6a442f0581565b7ff66846415d2bf9eabda9e84793ff9c0ea96d87f50fc41e66aa16469c6a442f0561079e81612557565b6101278290556040517f45ceffba6cdfd80ac24dded71e7dc1a0e3620f2a2a1433f2c38e0e68acef2a00906107d4908490614482565b60405180910390a15050565b60007fffffffff0000000000000000000000000000000000000000000000000000000082167fa4b498e8000000000000000000000000000000000000000000000000000000001480610836575061083682612561565b92915050565b6000808787604051602001610852929190614adb565b604080517fffffffffffffffffffffffffffffffffffffffffffffffffffffffffffffffe0818403018152918152815160209283012060008181527f5ec30c221e24967285681315edacd44d4c48b63575b81c7c3bfc1ef91e6a940690935291205490915060ff166108c8576000915050610d10565b60005b63ffffffff8116861115610afc57600087878363ffffffff168181106108f3576108f3614b01565b90506020028101906109059190614b30565b610913906020810190614ab7565b88888463ffffffff1681811061092b5761092b614b01565b905060200281019061093d9190614b30565b61094e906040810190602001614ab7565b89898563ffffffff1681811061096657610966614b01565b90506020028101906109789190614b30565b610989906060810190604001614b86565b8a8a8663ffffffff168181106109a1576109a1614b01565b90506020028101906109b39190614b30565b6109c4906080810190606001614b86565b8b8b8763ffffffff168181106109dc576109dc614b01565b90506020028101906109ee9190614b30565b6109fc906080810190614ba7565b604051602001610a1196959493929190614c6a565b604051602081830303815290604052805190602001209050610ad98a828a8a8663ffffffff16818110610a4657610a46614b01565b9050602002810190610a589190614b30565b610a669060c0810190614cc3565b808060200260200160405190810160405280939291908181526020018383602002808284376000920191909152508e92508d91505063ffffffff8816818110610ab157610ab1614b01565b9050602002810190610ac39190614b30565b610ad49060c081019060a001614ab7565b6125f8565b610ae95760009350505050610d10565b5080610af481614d65565b9150506108cb565b5060005b63ffffffff8116841115610d0957600085858363ffffffff16818110610b2857610b28614b01565b9050602002810190610b3a9190614b30565b610b48906020810190614ab7565b86868463ffffffff16818110610b6057610b60614b01565b9050602002810190610b729190614b30565b610b83906040810190602001614ab7565b87878563ffffffff16818110610b9b57610b9b614b01565b9050602002810190610bad9190614b30565b610bbe906060810190604001614b86565b88888663ffffffff16818110610bd657610bd6614b01565b9050602002810190610be89190614b30565b610bf9906080810190606001614b86565b89898763ffffffff16818110610c1157610c11614b01565b9050602002810190610c239190614b30565b610c31906080810190614ba7565b604051602001610c4696959493929190614c6a565b604051602081830303815290604052805190602001209050610ce6898288888663ffffffff16818110610c7b57610c7b614b01565b9050602002810190610c8d9190614b30565b610c9b9060c0810190614cc3565b808060200260200160405190810160405280939291908181526020018383602002808284376000920191909152508c92508b91505063ffffffff8816818110610ab157610ab1614b01565b610cf65760009350505050610d10565b5080610d0181614d65565b915050610b00565b5060019150505b9695505050505050565b60006101256000846001811115610d3357610d33614928565b6001811115610d4457610d44614928565b81526020808201929092526040908101600090812085825290925290205460ff16905092915050565b600082815260656020526040902060010154610d8881612557565b610d9283836126da565b505050565b73ffffffffffffffffffffffffffffffffffffffff81163314610def576040517f08c379a0000000000000000000000000000000000000000000000000000000008152600401610de690614e00565b60405180910390fd5b610df982826127ce565b5050565b73ffffffffffffffffffffffffffffffffffffffff7f0000000000000000000000000000000000000000000000000000000000000000163003610e6c576040517f08c379a0000000000000000000000000000000000000000000000000000000008152600401610de690614e6a565b7f000000000000000000000000000000000000000000000000000000000000000073ffffffffffffffffffffffffffffffffffffffff16610ee17f360894a13ba1a3210667c828492db98dca3e2076cc3735a920a3ca505d382bbc5473ffffffffffffffffffffffffffffffffffffffff1690565b73ffffffffffffffffffffffffffffffffffffffff1614610f2e576040517f08c379a0000000000000000000000000000000000000000000000000000000008152600401610de690614ed4565b610f3781612889565b60408051600080825260208201909252610f53918391906128b3565b50565b60006101296000836001811115610f6f57610f6f614928565b6001811115610f8057610f80614928565b8152602080820192909252604090810160009081208682528352819020815160808101909252805482526001810154919290919083019060ff166002811115610fcb57610fcb614928565b6002811115610fdc57610fdc614928565b8152600191820154610100810463ffffffff16602083015265010000000000900473ffffffffffffffffffffffffffffffffffffffff166040909101529091508160200151600281111561103257611032614928565b14611069576040517f5f158cf700000000000000000000000000000000000000000000000000000000815260040160405180910390fd5b806040015163ffffffff1643116110ac576040517f6d542c0d00000000000000000000000000000000000000000000000000000000815260040160405180910390fd5b6040805160808101825260008082526020820181905291810182905260608101829052908190610129908560018111156110e8576110e8614928565b60018111156110f9576110f9614928565b81526020808201929092526040908101600090812088825283522082518155908201516001808301805490917fffffffffffffffffffffffffffffffffffffffffffffffffffffffffffffff009091169083600281111561115c5761115c614928565b0217905550604082015160019190910180546060938401517fffffffffffffff000000000000000000000000000000000000000000000000ff90911661010063ffffffff948516027fffffffffffffff0000000000000000000000000000000000000000ffffffffff16176501000000000073ffffffffffffffffffffffffffffffffffffffff92831602179091558451928501516111fe93911691612a0616565b7f183f545d36b5f2ab70fd54bc201a3ddfdb07f3142332930b958c70c91aa139d38385846000015185604001518660600151604051611241959493929190614f31565b60405180910390a150505050565b611257612ae3565b61012654341015611294576040517fde43553100000000000000000000000000000000000000000000000000000000815260040160405180910390fd5b610127543411156112d1576040517f24fe119200000000000000000000000000000000000000000000000000000000815260040160405180910390fd5b6112de6001853486612b22565b600082826040516112f0929190614f73565b604051908190039020610128549091507fb90ac4d1f128747d8e53fc14b1050b614193e887defe97c9977fdd7364240ab790869034906113369063ffffffff1643614f80565b8785604051611349959493929190614fa0565b60405180910390a15050505050565b73ffffffffffffffffffffffffffffffffffffffff7f00000000000000000000000000000000000000000000000000000000000000001630036113c7576040517f08c379a0000000000000000000000000000000000000000000000000000000008152600401610de690614e6a565b7f000000000000000000000000000000000000000000000000000000000000000073ffffffffffffffffffffffffffffffffffffffff1661143c7f360894a13ba1a3210667c828492db98dca3e2076cc3735a920a3ca505d382bbc5473ffffffffffffffffffffffffffffffffffffffff1690565b73ffffffffffffffffffffffffffffffffffffffff1614611489576040517f08c379a0000000000000000000000000000000000000000000000000000000008152600401610de690614ed4565b61149282612889565b610df9828260016128b3565b600054610100900460ff16158080156114be5750600054600160ff909116105b806114d85750303b1580156114d8575060005460ff166001145b61150e576040517f08c379a0000000000000000000000000000000000000000000000000000000008152600401610de69061503c565b600080547fffffffffffffffffffffffffffffffffffffffffffffffffffffffffffffff00166001179055801561156c57600080547fffffffffffffffffffffffffffffffffffffffffffffffffffffffffffff00ff166101001790555b611574612d31565b61157c612d72565b73ffffffffffffffffffffffffffffffffffffffff88166115c9576040517f08c379a0000000000000000000000000000000000000000000000000000000008152600401610de6906150a6565b73ffffffffffffffffffffffffffffffffffffffff8416611616576040517f08c379a0000000000000000000000000000000000000000000000000000000008152600401610de690615110565b73ffffffffffffffffffffffffffffffffffffffff8316611663576040517f08c379a0000000000000000000000000000000000000000000000000000000008152600401610de69061517a565b73ffffffffffffffffffffffffffffffffffffffff82166116b0576040517f08c379a0000000000000000000000000000000000000000000000000000000008152600401610de6906151e4565b61012480547fffffffffffffffffffffffff00000000000000000000000000000000000000001673ffffffffffffffffffffffffffffffffffffffff8a161790556040517f4f58839d9075210378ad47340fc23fab81e060f9fb13f00151841b25bc23d4b790611721908a9061485f565b60405180910390a161012687905561012786905561012880547fffffffffffffffffffffffffffffffffffffffffffffffffffffffff000000001663ffffffff87161790556040517f65bd598c7e893131b1f10bd7e7db583b9af90196f90525922c85b1c2fcc2986090611796908990614482565b60405180910390a17f45ceffba6cdfd80ac24dded71e7dc1a0e3620f2a2a1433f2c38e0e68acef2a00866040516117cd9190614482565b60405180910390a17f266d22101c27a330937ff06442e5289e92a84a449d22bb001c03789f7774b6288560405161180491906149c6565b60405180910390a16118367f60044782a422109ac08a415e44260ad5d3bad63d96ebe1fac0363399642ee3f2836126da565b6118416000856126da565b61186b7ff66846415d2bf9eabda9e84793ff9c0ea96d87f50fc41e66aa16469c6a442f05856126da565b6118957f55435dd261a4b9b3364963f7738a7a662ad9c84396d64be3365284bb7f0a5041846126da565b80156118fd57600080547fffffffffffffffffffffffffffffffffffffffffffffffffffffffffffff00ff1690556040517f7f26b83ff96e1f2b6a682f133852f6798a09c465da95921460cefb3847402498906118f490600190615208565b60405180910390a15b5050505050505050565b60003073ffffffffffffffffffffffffffffffffffffffff7f00000000000000000000000000000000000000000000000000000000000000001614611978576040517f08c379a0000000000000000000000000000000000000000000000000000000008152600401610de690615270565b507f360894a13ba1a3210667c828492db98dca3e2076cc3735a920a3ca505d382bbc90565b600080527f16d6d09ad43c2e13327e8e85b0f16a19ef2e63b72c391bfd77d21c5d499021856020527fdf4fae2a9d03ddefae2c9e431bd1ae49d400972b66abd41187abff73623b3c4b5460ff16158015611a1e5750611a1c7f60044782a422109ac08a415e44260ad5d3bad63d96ebe1fac0363399642ee3f2336105e9565b155b15611a55576040517f6692e47700000000000000000000000000000000000000000000000000000000815260040160405180910390fd5b611a5d612ae3565b60016101296000836001811115611a7657611a76614928565b6001811115611a8757611a87614928565b8152602080820192909252604090810160009081208b825290925290206001015460ff166002811115611abc57611abc614928565b14611af3576040517ff8c22cf100000000000000000000000000000000000000000000000000000000815260040160405180910390fd5b6000611b028686868686612ddd565b9050878114611b3d576040517fc496ba3d00000000000000000000000000000000000000000000000000000000815260040160405180910390fd5b600060405180608001604052806101296000866001811115611b6157611b61614928565b6001811115611b7257611b72614928565b8152602080820192909252604090810160009081208e825283522054825201600281526020016101296000866001811115611baf57611baf614928565b6001811115611bc057611bc0614928565b815260200190815260200160002060008c815260200190815260200160002060010160019054906101000a900463ffffffff1663ffffffff1681526020016101296000866001811115611c1557611c15614928565b6001811115611c2657611c26614928565b815260200190815260200160002060008c815260200190815260200160002060010160059054906101000a900473ffffffffffffffffffffffffffffffffffffffff1673ffffffffffffffffffffffffffffffffffffffff168152509050806101296000856001811115611c9c57611c9c614928565b6001811115611cad57611cad614928565b8152602080820192909252604090810160009081208d825283522082518155908201516001808301805490917fffffffffffffffffffffffffffffffffffffffffffffffffffffffffffffff0090911690836002811115611d1057611d10614928565b021790555060408201516001918201805460609094015173ffffffffffffffffffffffffffffffffffffffff1665010000000000027fffffffffffffff0000000000000000000000000000000000000000ffffffffff63ffffffff90931661010002929092167fffffffffffffff000000000000000000000000000000000000000000000000ff9094169390931717909155611e0a90610129906000908690811115611dbe57611dbe614928565b6001811115611dcf57611dcf614928565b8152602080820192909252604090810160009081208d825290925290205473ffffffffffffffffffffffffffffffffffffffff8a1690612a06565b7f7662d1f1b7cdcf8f1ef7d60f5d067659c70038cd15b5576b3a3a2c5ec59c2a1b838a6101296000876001811115611e4457611e44614928565b6001811115611e5557611e55614928565b815260200190815260200160002060008d8152602001908152602001600020600001548b604051611e899493929190615280565b60405180910390a1505050505050505050565b7f55435dd261a4b9b3364963f7738a7a662ad9c84396d64be3365284bb7f0a5041611ec681612557565b609780547fffffffffffffffffffffffffffffffffffffffffffffffffffffffffffffff001690556040517fe6fdbf73945dd61794a752b9181ea29f77170a7b1ffd37e0a7ff9d2c6f7258b990600090a150565b7ff66846415d2bf9eabda9e84793ff9c0ea96d87f50fc41e66aa16469c6a442f05611f4481612557565b61012480547fffffffffffffffffffffffff00000000000000000000000000000000000000001673ffffffffffffffffffffffffffffffffffffffff84161790556040517f4f58839d9075210378ad47340fc23fab81e060f9fb13f00151841b25bc23d4b7906107d490849061485f565b7ff66846415d2bf9eabda9e84793ff9c0ea96d87f50fc41e66aa16469c6a442f05611fdf81612557565b6101268290556040517f65bd598c7e893131b1f10bd7e7db583b9af90196f90525922c85b1c2fcc29860906107d4908490614482565b7f55435dd261a4b9b3364963f7738a7a662ad9c84396d64be3365284bb7f0a504161203f81612557565b609780547fffffffffffffffffffffffffffffffffffffffffffffffffffffffffffffff001660011790556040517f61340a1b154d5d21d259a74bf95379201799b9d12cc6509bb46cb56dc281df5590600090a150565b61209e612ae3565b610126543410156120db576040517fde43553100000000000000000000000000000000000000000000000000000000815260040160405180910390fd5b61012754341115612118576040517f24fe119200000000000000000000000000000000000000000000000000000000815260040160405180910390fd5b6121256000853486612b22565b60008282604051612137929190614f73565b604051908190039020610128549091507f1fed6e69eaad90e958a1b7d76945990b60a30f6f6fcdea81c75cbeff9672e0e390869034906113369063ffffffff1643614f80565b60008381527ffb5118a5556b2b637cbef3929456821b1cfe26cb2877389cd61f1f5c6db87845602052604081205460ff166121ba575060006123cb565b60005b63ffffffff81168311156123c557600084848363ffffffff168181106121e5576121e5614b01565b90506020028101906121f79190614b30565b612205906020810190614ab7565b85858463ffffffff1681811061221d5761221d614b01565b905060200281019061222f9190614b30565b612240906040810190602001614ab7565b86868563ffffffff1681811061225857612258614b01565b905060200281019061226a9190614b30565b61227b906060810190604001614b86565b87878663ffffffff1681811061229357612293614b01565b90506020028101906122a59190614b30565b6122b6906080810190606001614b86565b88888763ffffffff168181106122ce576122ce614b01565b90506020028101906122e09190614b30565b6122ee906080810190614ba7565b60405160200161230396959493929190614c6a565b6040516020818303038152906040528051906020012090506123a3868287878663ffffffff1681811061233857612338614b01565b905060200281019061234a9190614b30565b6123589060c0810190614cc3565b808060200260200160405190810160405280939291908181526020018383602002808284376000920191909152508b92508a91505063ffffffff8816818110610ab157610ab1614b01565b6123b2576000925050506123cb565b50806123bd81614d65565b9150506121bd565b50600190505b9392505050565b600080527f16d6d09ad43c2e13327e8e85b0f16a19ef2e63b72c391bfd77d21c5d499021856020527fdf4fae2a9d03ddefae2c9e431bd1ae49d400972b66abd41187abff73623b3c4b5460ff1615801561245357506124517f60044782a422109ac08a415e44260ad5d3bad63d96ebe1fac0363399642ee3f2336105e9565b155b1561248a576040517f6692e47700000000000000000000000000000000000000000000000000000000815260040160405180910390fd5b612492612ae3565b61249f8585858585612ddd565b505050505050565b6000828152606560205260409020600101546124c281612557565b610d9283836127ce565b7ff66846415d2bf9eabda9e84793ff9c0ea96d87f50fc41e66aa16469c6a442f056124f681612557565b61012880547fffffffffffffffffffffffffffffffffffffffffffffffffffffffff000000001663ffffffff84161790556040517f266d22101c27a330937ff06442e5289e92a84a449d22bb001c03789f7774b628906107d49084906149c6565b610f538133613955565b60007fffffffff0000000000000000000000000000000000000000000000000000000082167f7965db0b00000000000000000000000000000000000000000000000000000000148061083657507f01ffc9a7000000000000000000000000000000000000000000000000000000007fffffffff00000000000000000000000000000000000000000000000000000000831614610836565b600083815b84518163ffffffff1610156126ce57600163ffffffff8581169083161c166000036126715781858263ffffffff168151811061263b5761263b614b01565b6020026020010151604051602001612654929190614adb565b6040516020818303038152906040528051906020012091506126bc565b848163ffffffff168151811061268957612689614b01565b6020026020010151826040516020016126a3929190614adb565b6040516020818303038152906040528051906020012091505b806126c681614d65565b9150506125fd565b50909414949350505050565b600082815260656020908152604080832073ffffffffffffffffffffffffffffffffffffffff8516845290915290205460ff16610df957600082815260656020908152604080832073ffffffffffffffffffffffffffffffffffffffff85168452909152902080547fffffffffffffffffffffffffffffffffffffffffffffffffffffffffffffff001660011790556127703390565b73ffffffffffffffffffffffffffffffffffffffff168173ffffffffffffffffffffffffffffffffffffffff16837f2f8788117e7eff1d82e926ec794901d17c78024a50270940304540a733656f0d60405160405180910390a45050565b600082815260656020908152604080832073ffffffffffffffffffffffffffffffffffffffff8516845290915290205460ff1615610df957600082815260656020908152604080832073ffffffffffffffffffffffffffffffffffffffff8516808552925280832080547fffffffffffffffffffffffffffffffffffffffffffffffffffffffffffffff0016905551339285917ff6391f5c32d9c69d2a47ea670b442974b53935d1edc7fd64eb21e047a839171b9190a45050565b7ff66846415d2bf9eabda9e84793ff9c0ea96d87f50fc41e66aa16469c6a442f05610df981612557565b7f4910fdfa16fed3260ed0e7147f7cc6da11a60208b5b9406d12a635614ffd91435460ff16156128e657610d9283613a0f565b8273ffffffffffffffffffffffffffffffffffffffff166352d1902d6040518163ffffffff1660e01b8152600401602060405180830381865afa92505050801561296b575060408051601f3d9081017fffffffffffffffffffffffffffffffffffffffffffffffffffffffffffffffe0168201909252612968918101906152c0565b60015b6129a1576040517f08c379a0000000000000000000000000000000000000000000000000000000008152600401610de69061533b565b7f360894a13ba1a3210667c828492db98dca3e2076cc3735a920a3ca505d382bbc81146129fa576040517f08c379a0000000000000000000000000000000000000000000000000000000008152600401610de6906153a5565b50610d92838383613ac3565b80471015612a40576040517f08c379a0000000000000000000000000000000000000000000000000000000008152600401610de6906153ec565b60008273ffffffffffffffffffffffffffffffffffffffff1682604051612a66906153fc565b60006040518083038185875af1925050503d8060008114612aa3576040519150601f19603f3d011682016040523d82523d6000602084013e612aa8565b606091505b5050905080610d92576040517f08c379a0000000000000000000000000000000000000000000000000000000008152600401610de690615461565b60975460ff1615612b20576040517f379dfc6300000000000000000000000000000000000000000000000000000000815260040160405180910390fd5b565b60006101296000866001811115612b3b57612b3b614928565b6001811115612b4c57612b4c614928565b81526020808201929092526040908101600090812087825290925290206001015460ff166002811115612b8157612b81614928565b14612bb8576040517f96e41fe900000000000000000000000000000000000000000000000000000000815260040160405180910390fd5b604080516080810182528381526001602082015261012854600092820190612be69063ffffffff1643614f80565b63ffffffff1681526020018373ffffffffffffffffffffffffffffffffffffffff168152509050806101296000876001811115612c2557612c25614928565b6001811115612c3657612c36614928565b81526020808201929092526040908101600090812088825283522082518155908201516001808301805490917fffffffffffffffffffffffffffffffffffffffffffffffffffffffffffffff0090911690836002811115612c9957612c99614928565b021790555060408201516001909101805460609093015173ffffffffffffffffffffffffffffffffffffffff1665010000000000027fffffffffffffff0000000000000000000000000000000000000000ffffffffff63ffffffff90931661010002929092167fffffffffffffff000000000000000000000000000000000000000000000000ff909316929092171790555050505050565b600054610100900460ff16612b20576040517f08c379a0000000000000000000000000000000000000000000000000000000008152600401610de6906154cb565b600054610100900460ff16612db3576040517f08c379a0000000000000000000000000000000000000000000000000000000008152600401610de6906154cb565b609780547fffffffffffffffffffffffffffffffffffffffffffffffffffffffffffffff00169055565b6000612de7612ae3565b600863ffffffff871610612dfa57600080fd5b6040805160c081018252600080825260208201819052918101829052606081018290526080810182905260a0810182905290836001811115612e3e57612e3e614928565b03612e5457612e4d8585613aee565b9050612e61565b612e5e8585613c58565b90505b6080810151610124546040517f074144d600000000000000000000000000000000000000000000000000000000815273ffffffffffffffffffffffffffffffffffffffff9091169063074144d690612ebd908b906004016154f6565b602060405180830381865afa158015612eda573d6000803e3d6000fd5b505050506040513d601f19601f82011682018060405250810190612efe91906152c0565b14612f35576040517fd9fcd6a100000000000000000000000000000000000000000000000000000000815260040160405180910390fd5b6101245460009073ffffffffffffffffffffffffffffffffffffffff1663c6ca4753612f6760808a0160608b01614ab7565b6040518263ffffffff1660e01b8152600401612f8391906149c6565b602060405180830381865afa158015612fa0573d6000803e3d6000fd5b505050506040513d601f19601f82011682018060405250810190612fc491906152c0565b905086356020880135612fdd60608a0160408b01614ab7565b604051602001612fef93929190615504565b60405160208183030381529060405280519060200120811461301057600080fd5b50856080016040516020016130259190615551565b604051602081830303815290604052805190602001208160a001511461304a57600080fd5b6000805b600a8163ffffffff1610156130ac5760006080890163ffffffff8316600a811061307a5761307a614b01565b60200201351461309a57613097600163ffffffff83161b83614f80565b91505b806130a481614d65565b91505061304e565b5060008163ffffffff161180156130de57506130ce6060880160408901614ab7565b63ffffffff168163ffffffff1611155b1561315d57600061314488608001600a806020026040519081016040528092919082600a60200280828437600092019190915250506040805161014081810190925291506101c08c0190600a908390839080828437600092019190915250613d5d915050565b5090508088602001351461315757600080fd5b50613857565b61316d6060880160408901614ab7565b63ffffffff168163ffffffff16111561385757438161319260808a0160608b01614ab7565b61319c9190614f80565b63ffffffff1611156131da576040517ff5b1753900000000000000000000000000000000000000000000000000000000815260040160405180910390fd5b6131e661010043615567565b6131f66060890160408a01614ab7565b61320660808a0160608b01614ab7565b6132109190614f80565b63ffffffff16101561324e576040517f7df2555400000000000000000000000000000000000000000000000000000000815260040160405180910390fd5b60408051610140808201835260008083527fad3228b676f7d3cd4284a5443f17f1962b36e491b30a40b2405849e597ba5fb560208401527fb4c11951957c6f8f642c4af61cd6b24640fec6dc7fc607ee8206a99e92410d30838501527f21ddb9a356815c3fac1026b6dec5df3124afbadb485c9ba5a3e3398a04b7ba8560608401527fe58769b32a1beaf1ea27375a44095a0d1fb664ce2dd358e7fcbfb78c26a1934460808401527f0eb01ebfc9ed27500cd4dfc979272d1f0913cc9f66540d7e8005811109e1cf2d60a08401527f887c22bd8750d34016ac3c66b5ff102dacdd73f6b014e710b51e8022af9a196860c08401527fffd70157e48063fc33c97a050f7f640233bf646cc98d9524c6b92bcf3ab56f8360e08401527f9867cc5f7f196b93bae1e27e6320742445d290f2263827498b54fec539f756af6101008401527fcefad4e508c098b9a7e1d8feb19955fb02ba9675585078710969d3440f5054e06101208401528351808301909452919282916133eb91906101c08d0190600a908390839080828437600092019190915250869150613d5d9050565b909250905063ffffffff811661340760608c0160408d01614ab7565b63ffffffff161461341757600080fd5b818a602001351461342757600080fd5b506000915061343e90506060890160408a01614ab7565b613448908361557a565b63ffffffff1667ffffffffffffffff81111561346657613466614602565b60405190808252806020026020018201604052801561348f578160200160208202803683370190505b50905060005b6134a560608a0160408b01614ab7565b6134af908461557a565b63ffffffff168163ffffffff16101561353357806134d360608b0160408c01614ab7565b6134e360808c0160608d01614ab7565b6134ed9190614f80565b6134f79190614f80565b63ffffffff1640828263ffffffff168151811061351657613516614b01565b60209081029190910101528061352b81614d65565b915050613495565b50600061354660608a0160408b01614ab7565b613550908461557a565b90506000805b63ffffffff8316156138525763ffffffff821661357960608d0160408e01614ab7565b63ffffffff16901c600116905060005b60026135958386614f80565b61359f91906155c9565b63ffffffff168163ffffffff161015613727576000808363ffffffff1660010361365f5763ffffffff83161561360a578660016135dd8560026155e7565b6135e7919061557a565b63ffffffff16815181106135fd576135fd614b01565b602002602001015161362c565b8d6101c0018563ffffffff16600a811061362657613626614b01565b60200201355b91508661363a8460026155e7565b63ffffffff168151811061365057613650614b01565b602002602001015190506136c5565b8661366b8460026155e7565b63ffffffff168151811061368157613681614b01565b602002602001015191508683600261369991906155e7565b6136a4906001614f80565b63ffffffff16815181106136ba576136ba614b01565b602002602001015190505b81816040516020016136d8929190614adb565b60405160208183030381529060405280519060200120878463ffffffff168151811061370657613706614b01565b6020026020010181815250505050808061371f90614d65565b915050613589565b5060026137348285614f80565b61373e9190615611565b63ffffffff166001036137d1578a6080018263ffffffff16600a811061376657613766614b01565b60200201358461377760018661557a565b63ffffffff168151811061378d5761378d614b01565b6020026020010151146137cc576040517f84cca32b00000000000000000000000000000000000000000000000000000000815260040160405180910390fd5b613828565b8a6080018263ffffffff16600a81106137ec576137ec614b01565b602002013515613828576040517f84cca32b00000000000000000000000000000000000000000000000000000000815260040160405180910390fd5b613833826001614f80565b915060026138418285614f80565b61384b91906155c9565b9250613556565b505050505b6000600185600181111561386d5761386d614928565b0361387d575060608201516138ae565b60208084015160608501516040516138959301614adb565b6040516020818303038152906040528051906020012090505b600161012560008760018111156138c7576138c7614928565b60018111156138d8576138d8614928565b8152602001908152602001600020600083815260200190815260200160002060006101000a81548160ff0219169083151502179055507fe23ee42009c44c3a1ad1550f1bc09ac28a507609a2e6a767f3ed98bc4246df26858260405161393f92919061562f565b60405180910390a1925050505b95945050505050565b600082815260656020908152604080832073ffffffffffffffffffffffffffffffffffffffff8516845290915290205460ff16610df95761399581613ed4565b6139a0836020613ef3565b6040516020016139b1929190615690565b604080517fffffffffffffffffffffffffffffffffffffffffffffffffffffffffffffffe0818403018152908290527f08c379a0000000000000000000000000000000000000000000000000000000008252610de691600401615744565b73ffffffffffffffffffffffffffffffffffffffff81163b613a5d576040517f08c379a0000000000000000000000000000000000000000000000000000000008152600401610de6906157af565b7f360894a13ba1a3210667c828492db98dca3e2076cc3735a920a3ca505d382bbc80547fffffffffffffffffffffffff00000000000000000000000000000000000000001673ffffffffffffffffffffffffffffffffffffffff92909216919091179055565b613acc83614106565b600082511180613ad95750805b15610d9257613ae88383614153565b50505050565b6040805160c08082018352600080835260208301819052828401819052606083018190526080830181905260a083015282519081019092529080613b386101a061018086886157bf565b613b41916157ef565b8152602001613b566101e06101c086886157bf565b613b5f916157ef565b6080613b716101c06101a0888a6157bf565b613b7a916157ef565b901b178152602001613b926102006101e086886157bf565b613b9b916157ef565b8152602001613bb061024061022086886157bf565b613bb9916157ef565b6080613bcb610220610200888a6157bf565b613bd4916157ef565b901b178152602001613bec61028061026086886157bf565b613bf5916157ef565b6080613c07610260610240888a6157bf565b613c10916157ef565b901b178152602001613c286102c06102a086886157bf565b613c31916157ef565b6080613c436102a0610280888a6157bf565b613c4c916157ef565b901b1790529392505050565b6040805160c0808201835260008083526020808401829052838501829052606084018290526080840182905260a084018290528451928301855281835282015290918101613cac6101a061018086886157bf565b613cb5916157ef565b8152602001613cca6101e06101c086886157bf565b613cd3916157ef565b6080613ce56101c06101a0888a6157bf565b613cee916157ef565b901b178152602001613d0661022061020086886157bf565b613d0f916157ef565b6080613d216102006101e0888a6157bf565b613d2a916157ef565b901b178152602001613d4261026061024086886157bf565b613d4b916157ef565b6080613c43610240610220888a6157bf565b60008080805b600a8163ffffffff161015613ecb5781158015613d9d575060008663ffffffff8316600a8110613d9557613d95614b01565b602002015114155b15613dc657848163ffffffff16600a8110613dba57613dba614b01565b60200201519350600191505b8115613eb95760008663ffffffff8316600a8110613de657613de6614b01565b602002015114613e7157858163ffffffff16600a8110613e0857613e08614b01565b602002015184604051602001613e1f929190614adb565b604080517fffffffffffffffffffffffffffffffffffffffffffffffffffffffffffffffe081840301815291905280516020909101209350613e6a600163ffffffff83161b84614f80565b9250613eb9565b83858263ffffffff16600a8110613e8a57613e8a614b01565b6020020151604051602001613ea0929190614adb565b6040516020818303038152906040528051906020012093505b80613ec381614d65565b915050613d63565b50509250929050565b606061083673ffffffffffffffffffffffffffffffffffffffff831660145b60606000613f02836002615838565b613f0d906002615850565b67ffffffffffffffff811115613f2557613f25614602565b6040519080825280601f01601f191660200182016040528015613f4f576020820181803683370190505b5090507f300000000000000000000000000000000000000000000000000000000000000081600081518110613f8657613f86614b01565b60200101907effffffffffffffffffffffffffffffffffffffffffffffffffffffffffffff1916908160001a9053507f780000000000000000000000000000000000000000000000000000000000000081600181518110613fe957613fe9614b01565b60200101907effffffffffffffffffffffffffffffffffffffffffffffffffffffffffffff1916908160001a9053506000614025846002615838565b614030906001615850565b90505b60018111156140cd577f303132333435363738396162636465660000000000000000000000000000000085600f166010811061407157614071614b01565b1a60f81b82828151811061408757614087614b01565b60200101907effffffffffffffffffffffffffffffffffffffffffffffffffffffffffffff1916908160001a90535060049490941c936140c681615863565b9050614033565b5083156123cb576040517f08c379a0000000000000000000000000000000000000000000000000000000008152600401610de6906158ca565b61410f81613a0f565b60405173ffffffffffffffffffffffffffffffffffffffff8216907fbc7cd75a20ee27fd9adebab32041f755214dbc6bffa90cc0225b39da2e5c2d3b90600090a250565b606073ffffffffffffffffffffffffffffffffffffffff83163b6141a3576040517f08c379a0000000000000000000000000000000000000000000000000000000008152600401610de690615934565b6000808473ffffffffffffffffffffffffffffffffffffffff16846040516141cb9190615944565b600060405180830381855af49150503d8060008114614206576040519150601f19603f3d011682016040523d82523d6000602084013e61420b565b606091505b509150915061394c8282604051806060016040528060278152602001615951602791396060831561423d5750816123cb565b6123cb83838151156142525781518083602001fd5b806040517f08c379a0000000000000000000000000000000000000000000000000000000008152600401610de69190615744565b805b8114610f5357600080fd5b803561083681614286565b6000602082840312156142b3576142b3600080fd5b60006142bf8484614293565b949350505050565b7fffffffff000000000000000000000000000000000000000000000000000000008116614288565b8035610836816142c7565b60006020828403121561430f5761430f600080fd5b60006142bf84846142ef565b8015155b82525050565b60208101610836828461431b565b60008083601f84011261434857614348600080fd5b50813567ffffffffffffffff81111561436357614363600080fd5b60208301915083602082028301111561437e5761437e600080fd5b9250929050565b600080600080600080608087890312156143a1576143a1600080fd5b60006143ad8989614293565b96505060206143be89828a01614293565b955050604087013567ffffffffffffffff8111156143de576143de600080fd5b6143ea89828a01614333565b9450945050606087013567ffffffffffffffff81111561440c5761440c600080fd5b61441889828a01614333565b92509250509295509295509295565b60028110610f5357600080fd5b803561083681614427565b6000806040838503121561445557614455600080fd5b60006144618585614434565b925050602061447285828601614293565b9150509250929050565b8061431f565b60208101610836828461447c565b600073ffffffffffffffffffffffffffffffffffffffff8216610836565b61428881614490565b8035610836816144ae565b600080604083850312156144d8576144d8600080fd5b60006144e48585614293565b9250506020614472858286016144b7565b60006020828403121561450a5761450a600080fd5b60006142bf84846144b7565b6000806040838503121561452c5761452c600080fd5b60006145388585614293565b925050602061447285828601614434565b60008083601f84011261455e5761455e600080fd5b50813567ffffffffffffffff81111561457957614579600080fd5b60208301915083600182028301111561437e5761437e600080fd5b600080600080606085870312156145ad576145ad600080fd5b60006145b98787614293565b94505060206145ca878288016144b7565b935050604085013567ffffffffffffffff8111156145ea576145ea600080fd5b6145f687828801614549565b95989497509550505050565b7f4e487b7100000000000000000000000000000000000000000000000000000000600052604160045260246000fd5b7fffffffffffffffffffffffffffffffffffffffffffffffffffffffffffffffe0601f830116810181811067ffffffffffffffff8211171561467557614675614602565b6040525050565b600061468760405190565b90506146938282614631565b919050565b600067ffffffffffffffff8211156146b2576146b2614602565b7fffffffffffffffffffffffffffffffffffffffffffffffffffffffffffffffe0601f83011660200192915050565b82818337506000910152565b60006147006146fb84614698565b61467c565b90508281526020810184848401111561471b5761471b600080fd5b6147268482856146e1565b509392505050565b600082601f83011261474257614742600080fd5b81356142bf8482602086016146ed565b6000806040838503121561476857614768600080fd5b600061477485856144b7565b925050602083013567ffffffffffffffff81111561479457614794600080fd5b6144728582860161472e565b63ffffffff8116614288565b8035610836816147a0565b600080600080600080600060e0888a0312156147d5576147d5600080fd5b60006147e18a8a6144b7565b97505060206147f28a828b01614293565b96505060406148038a828b01614293565b95505060606148148a828b016147ac565b94505060806148258a828b016144b7565b93505060a06148368a828b016144b7565b92505060c06148478a828b016144b7565b91505092959891949750929550565b61431f81614490565b602081016108368284614856565b6000610300828403121561488357614883600080fd5b50919050565b60008060008060008060006103a0888a0312156148a8576148a8600080fd5b60006148b48a8a614293565b97505060206148c58a828b016144b7565b96505060406148d68a828b016147ac565b95505060606148e78a828b0161486d565b94505061036088013567ffffffffffffffff81111561490857614908600080fd5b6149148a828b01614549565b93509350506103806148478a828b01614434565b7f4e487b7100000000000000000000000000000000000000000000000000000000600052602160045260246000fd5b60038110610f5357610f53614928565b8061469381614957565b600061083682614967565b61431f81614971565b63ffffffff811661431f565b6080810161499f828761447c565b6149ac602083018661497c565b6149b96040830185614985565b61394c6060830184614856565b602081016108368284614985565b6000806000604084860312156149ec576149ec600080fd5b60006149f88686614293565b935050602084013567ffffffffffffffff811115614a1857614a18600080fd5b614a2486828701614333565b92509250509250925092565b60008060008060006103608688031215614a4c57614a4c600080fd5b6000614a5888886147ac565b9550506020614a698882890161486d565b94505061032086013567ffffffffffffffff811115614a8a57614a8a600080fd5b614a9688828901614549565b9350935050610340614aaa88828901614434565b9150509295509295909350565b600060208284031215614acc57614acc600080fd5b60006142bf84846147ac565b90565b6000614ae7828561447c565b602082019150614af7828461447c565b5060200192915050565b7f4e487b7100000000000000000000000000000000000000000000000000000000600052603260045260246000fd5b600082357fffffffffffffffffffffffffffffffffffffffffffffffffffffffffffffff2136849003018112614b6857614b68600080fd5b9190910192915050565b60ff8116614288565b803561083681614b72565b600060208284031215614b9b57614b9b600080fd5b60006142bf8484614b7b565b60008083357fffffffffffffffffffffffffffffffffffffffffffffffffffffffffffffffe136859003018112614be057614be0600080fd5b80840192508235915067ffffffffffffffff821115614c0157614c01600080fd5b602083019250600182023603831315614c1c57614c1c600080fd5b509250929050565b60006108368260e01b90565b61431f63ffffffff8216614c24565b60006108368260f81b90565b61431f60ff8216614c3f565b6000614c648385846146e1565b50500190565b6000614c768289614c30565b600482019150614c868288614c30565b600482019150614c968287614c4b565b600182019150614ca68286614c4b565b600182019150614cb7828486614c57565b98975050505050505050565b60008083357fffffffffffffffffffffffffffffffffffffffffffffffffffffffffffffffe136859003018112614cfc57614cfc600080fd5b80840192508235915067ffffffffffffffff821115614d1d57614d1d600080fd5b60209283019282023603831315614c1c57614c1c600080fd5b7f4e487b7100000000000000000000000000000000000000000000000000000000600052601160045260246000fd5b63ffffffff1660007fffffffffffffffffffffffffffffffffffffffffffffffffffffffff000000018201614d9c57614d9c614d36565b5060010190565b602f81526000602082017f416363657373436f6e74726f6c3a2063616e206f6e6c792072656e6f756e636581527f20726f6c657320666f722073656c660000000000000000000000000000000000602082015291505b5060400190565b6020808252810161083681614da3565b602c81526000602082017f46756e6374696f6e206d7573742062652063616c6c6564207468726f7567682081527f64656c656761746563616c6c000000000000000000000000000000000000000060208201529150614df9565b6020808252810161083681614e10565b602c81526000602082017f46756e6374696f6e206d7573742062652063616c6c6564207468726f7567682081527f6163746976652070726f7879000000000000000000000000000000000000000060208201529150614df9565b6020808252810161083681614e7a565b60028110610f5357610f53614928565b8061469381614ee4565b600061083682614ef4565b61431f81614efe565b600061083682614490565b600061083682614f12565b61431f81614f1d565b60a08101614f3f8288614f09565b614f4c602083018761447c565b614f59604083018661447c565b614f666060830185614985565b610d106080830184614f28565b60006142bf828486614c57565b63ffffffff91821691908116908282019081111561083657610836614d36565b60a08101614fae828861447c565b614fbb602083018761447c565b614fc86040830186614985565b614fd56060830185614f28565b610d10608083018461447c565b602e81526000602082017f496e697469616c697a61626c653a20636f6e747261637420697320616c72656181527f647920696e697469616c697a656400000000000000000000000000000000000060208201529150614df9565b6020808252810161083681614fe2565b602381526000602082017f4178696f6d563151756572793a204178696f6d2061646472657373206973207a81527f65726f000000000000000000000000000000000000000000000000000000000060208201529150614df9565b602080825281016108368161504c565b602681526000602082017f4178696f6d563151756572793a2074696d656c6f636b2061646472657373206981527f73207a65726f000000000000000000000000000000000000000000000000000060208201529150614df9565b60208082528101610836816150b6565b602681526000602082017f4178696f6d563151756572793a20677561726469616e2061646472657373206981527f73207a65726f000000000000000000000000000000000000000000000000000060208201529150614df9565b6020808252810161083681615120565b602481526000602082017f4178696f6d563151756572793a2070726f76657220616464726573732069732081527f7a65726f0000000000000000000000000000000000000000000000000000000060208201529150614df9565b602080825281016108368161518a565b600060ff8216610836565b61431f816151f4565b6020810161083682846151ff565b603881526000602082017f555550535570677261646561626c653a206d757374206e6f742062652063616c81527f6c6564207468726f7567682064656c656761746563616c6c000000000000000060208201529150614df9565b6020808252810161083681615216565b6080810161528e8287614f09565b61529b602083018661447c565b6152a8604083018561447c565b61394c6060830184614f28565b805161083681614286565b6000602082840312156152d5576152d5600080fd5b60006142bf84846152b5565b602e81526000602082017f45524331393637557067726164653a206e657720696d706c656d656e7461746981527f6f6e206973206e6f74205555505300000000000000000000000000000000000060208201529150614df9565b60208082528101610836816152e1565b602981526000602082017f45524331393637557067726164653a20756e737570706f727465642070726f7881527f6961626c6555554944000000000000000000000000000000000000000000000060208201529150614df9565b602080825281016108368161534b565b601d81526000602082017f416464726573733a20696e73756666696369656e742062616c616e6365000000815291505b5060200190565b60208082528101610836816153b5565b600061083682614ad8565b603a81526000602082017f416464726573733a20756e61626c6520746f2073656e642076616c75652c207281527f6563697069656e74206d6179206861766520726576657274656400000000000060208201529150614df9565b6020808252810161083681615407565b602b81526000602082017f496e697469616c697a61626c653a20636f6e7472616374206973206e6f74206981527f6e697469616c697a696e6700000000000000000000000000000000000000000060208201529150614df9565b6020808252810161083681615471565b6000610836614ad863ffffffff841681565b61431f816154db565b6020810161083682846154ed565b6000615510828661447c565b602082019150615520828561447c565b6020820191506155308284614c30565b506004019392505050565b82818337505050565b610df9610140838361553b565b600061555d8284615544565b5061014001919050565b8181038181111561083657610836614d36565b63ffffffff91821691908116908282039081111561083657610836614d36565b7f4e487b7100000000000000000000000000000000000000000000000000000000600052601260045260246000fd5b63ffffffff91821691166000826155e2576155e261559a565b500490565b63ffffffff91821691908116908282029081169081811461560a5761560a614d36565b5092915050565b63ffffffff918216911660008261562a5761562a61559a565b500690565b6040810161563d8285614f09565b6123cb602083018461447c565b60005b8381101561566557818101518382015260200161564d565b50506000910152565b6000615678825190565b61568681856020860161564a565b9290920192915050565b7f416363657373436f6e74726f6c3a206163636f756e7420000000000000000000815260170160006156c2828561566e565b7f206973206d697373696e6720726f6c6520000000000000000000000000000000815260110191506142bf828461566e565b60006156fe825190565b80845260208401935061571581856020860161564a565b601f017fffffffffffffffffffffffffffffffffffffffffffffffffffffffffffffffe0169290920192915050565b602080825281016123cb81846156f4565b602d81526000602082017f455243313936373a206e657720696d706c656d656e746174696f6e206973206e81527f6f74206120636f6e74726163740000000000000000000000000000000000000060208201529150614df9565b6020808252810161083681615755565b600080858511156157d2576157d2600080fd5b838611156157e2576157e2600080fd5b5050820193919092039150565b8035828260208210156158305761582b7fffffffffffffffffffffffffffffffffffffffffffffffffffffffffffffffff836020036008021b90565b831692505b505092915050565b81810280821583820485141761560a5761560a614d36565b8082018082111561083657610836614d36565b60008161587257615872614d36565b507fffffffffffffffffffffffffffffffffffffffffffffffffffffffffffffffff0190565b60208082527f537472696e67733a20686578206c656e67746820696e73756666696369656e74910190815260006153e5565b6020808252810161083681615898565b602681526000602082017f416464726573733a2064656c65676174652063616c6c20746f206e6f6e2d636f81527f6e7472616374000000000000000000000000000000000000000000000000000060208201529150614df9565b60208082528101610836816158da565b60006123cb828461566e56fe416464726573733a206c6f772d6c6576656c2064656c65676174652063616c6c206661696c6564a2646970667358221220ef3484af2e09959f0e86183089cf62580a10b0d4f390baa2c2c554893c2d9cc064736f6c63430008130033",
    "linkReferences": {}
  },
  "methodIdentifiers": {
    "DEFAULT_ADMIN_ROLE()": "a217fddf",
    "GUARDIAN_ROLE()": "24ea54f4",
    "PROVER_ROLE()": "dc9a4ef6",
    "TIMELOCK_ROLE()": "f288a2e2",
    "areOnlyReceiptsValid(bytes32,(uint32,uint32,uint8,uint8,bytes,uint32,bytes32[])[])": "ce262d7a",
    "areTxReceiptsValid(bytes32,bytes32,(uint32,uint32,uint8,uint8,bytes,uint32,bytes32[])[],(uint32,uint32,uint8,uint8,bytes,uint32,bytes32[])[])": "03a78f49",
    "axiomAddress()": "528bad37",
    "collectRefund(bytes32,uint8)": "4549d820",
    "freezeAll()": "99464c89",
    "frozen()": "054f7d9c",
    "fulfillQueryVsMMR(bytes32,address,uint32,(bytes32,bytes32,uint32,uint32,bytes32[10],bytes32[10]),bytes,uint8)": "601b6e0f",
    "getRoleAdmin(bytes32)": "248a9ca3",
    "grantRole(bytes32,address)": "2f2ff15d",
    "hasRole(bytes32,address)": "91d14854",
    "initialize(address,uint256,uint256,uint32,address,address,address)": "50c0d2d8",
    "isKeccakResultValid(uint8,bytes32)": "2303049e",
    "maxQueryPrice()": "df7e2e2d",
    "minQueryPrice()": "b1d401cd",
    "proxiableUUID()": "52d1902d",
    "queries(uint8,bytes32)": "6a1f78df",
    "queryDeadlineInterval()": "79ce0468",
    "renounceRole(bytes32,address)": "36568abe",
    "revokeRole(bytes32,address)": "d547741f",
    "sendOnlyReceiptsQuery(bytes32,address,bytes)": "462b0b13",
    "sendTxReceiptsQuery(bytes32,address,bytes)": "a0b7657c",
    "supportsInterface(bytes4)": "01ffc9a7",
    "unfreezeAll()": "66c5c4a0",
    "updateAxiomAddress(address)": "774a6234",
    "updateMaxQueryPrice(uint256)": "01f8fca4",
    "updateMinQueryPrice(uint256)": "798da01a",
    "updateQueryDeadlineInterval(uint32)": "d77de079",
    "upgradeTo(address)": "3659cfe6",
    "upgradeToAndCall(address,bytes)": "4f1ef286",
    "verifiedKeccakResults(uint8,bytes32)": "37185d1f",
    "verifyResultVsMMR(uint32,(bytes32,bytes32,uint32,uint32,bytes32[10],bytes32[10]),bytes,uint8)": "d4ffc3c5"
  },
  "id": 18
}